:03000000020006F5
:03005F0002000399
:0300030002006296
:1000620012018E1200CE12006D80FB7E007F007C9A
:10007200007D00C007C006C005C00412019A858237
:100082000CD004D005D0068E82C006C005C0041272
:100092000157D0048C82C004120166850C821201C1
:1000A2004CD004D005D006D0070CBC00010DC3EC27
:1000B2009480ED6480948040BA74082EFEE43FFF81
:1000C200C3EE9440EF6480948040A422750D3F7586
:1000D2000EC0750FB87510BF758201120133C2B61A
:1000E200D2B4E4F508F509E508240DF98782120176
:1000F200420508E4B508020509C3E5089404E509C8
:100102006480948040E1758200120133E4F50AF5BF
:100112000BE508240DF98782120142050AE4B50AAB
:1001220002050BC3E50A9404E50B6480948040E168
:1001320022E582FF7005D2B3C2B222C2B3D2B2228A
:100142008582A0C2B5D2B1C2B122AF82D2B1D2B53C
:100152008FA0C2B122E582C423541FFF74B82FF5C9
:1001620082020142AF82BF40005012758200C00776
:10017200120133D00774402FF582020142758201C9
:10018200C007120133D0078F8202014275892075A0
:100192008DFD759850D28E2210980280FB8599822F
:0101A200223A
:06003500E478FFF6D8FD9F
:100013007900E94400601B7A009001A7780175A07C
:1000230000E493F2A308B8000205A0D9F4DAF2754C
:02003300A0FF2C
:10003B007800E84400600A790175A000E4F309D860
:10004B00FC7800E84400600C7900900001E4F0A318
:04005B00D8FCD9FAFA
:0D0006007581101201A3E582600302000362
:0401A300758200223F
:00000001FF
